{
  "contractName": "BasicCalculator",
  "abi": [
    {
      "inputs": [
        {
          "internalType": "uint256",
          "name": "",
          "type": "uint256"
        }
      ],
      "name": "pastResults",
      "outputs": [
        {
          "internalType": "uint256",
          "name": "",
          "type": "uint256"
        }
      ],
      "stateMutability": "view",
      "type": "function",
      "constant": true
    },
    {
      "inputs": [
        {
          "internalType": "uint256",
          "name": "num1",
          "type": "uint256"
        },
        {
          "internalType": "uint256",
          "name": "num2",
          "type": "uint256"
        }
      ],
      "name": "addOnlyPositive",
      "outputs": [
        {
          "internalType": "uint256",
          "name": "",
          "type": "uint256"
        }
      ],
      "stateMutability": "nonpayable",
      "type": "function"
    },
    {
      "inputs": [
        {
          "internalType": "uint256",
          "name": "num1",
          "type": "uint256"
        },
        {
          "internalType": "uint256",
          "name": "num2",
          "type": "uint256"
        }
      ],
      "name": "subtractOnlyPositive",
      "outputs": [
        {
          "internalType": "uint256",
          "name": "",
          "type": "uint256"
        }
      ],
      "stateMutability": "nonpayable",
      "type": "function"
    },
    {
      "inputs": [
        {
          "internalType": "uint256",
          "name": "num1",
          "type": "uint256"
        },
        {
          "internalType": "uint256",
          "name": "num2",
          "type": "uint256"
        }
      ],
      "name": "multiplyOnlyPositive",
      "outputs": [
        {
          "internalType": "uint256",
          "name": "",
          "type": "uint256"
        }
      ],
      "stateMutability": "nonpayable",
      "type": "function"
    },
    {
      "inputs": [
        {
          "internalType": "uint256",
          "name": "num1",
          "type": "uint256"
        },
        {
          "internalType": "uint256",
          "name": "num2",
          "type": "uint256"
        }
      ],
      "name": "divideNum",
      "outputs": [
        {
          "internalType": "uint256",
          "name": "",
          "type": "uint256"
        }
      ],
      "stateMutability": "nonpayable",
      "type": "function"
    },
    {
      "inputs": [
        {
          "internalType": "uint8",
          "name": "op1",
          "type": "uint8"
        },
        {
          "internalType": "uint8",
          "name": "op2",
          "type": "uint8"
        },
        {
          "internalType": "uint256",
          "name": "num1",
          "type": "uint256"
        },
        {
          "internalType": "uint256",
          "name": "num2",
          "type": "uint256"
        }
      ],
      "name": "execTwoOp",
      "outputs": [
        {
          "internalType": "uint256",
          "name": "",
          "type": "uint256"
        }
      ],
      "stateMutability": "nonpayable",
      "type": "function"
    },
    {
      "inputs": [],
      "name": "clearPastResults",
      "outputs": [],
      "stateMutability": "nonpayable",
      "type": "function"
    }
  ],
  "bytecode": "0x608060405234801561001057600080fd5b50610dcd806100206000396000f3fe608060405234801561001057600080fd5b506004361061007d5760003560e01c80639315a7161161005b5780639315a716146100ec578063d7e601481461011c578063dee2ea571461014c578063e576ee281461017c5761007d565b806314562c231461008257806328e4d4d61461008c578063453669ee146100bc575b600080fd5b61008a6101ac565b005b6100a660048036038101906100a191906107c7565b6101bb565b6040516100b39190610816565b60405180910390f35b6100d660048036038101906100d1919061086a565b610242565b6040516100e39190610816565b60405180910390f35b610106600480360381019061010191906107c7565b6104a3565b6040516101139190610816565b60405180910390f35b610136600480360381019061013191906107c7565b61057e565b6040516101439190610816565b60405180910390f35b610166600480360381019061016191906107c7565b61066e565b6040516101739190610816565b60405180910390f35b610196600480360381019061019191906108d1565b61072a565b6040516101a39190610816565b60405180910390f35b6000806101b9919061074e565b565b60008082036101ff576040517f08c379a00000000000000000000000000000000000000000000000000000000081526004016101f69061095b565b60405180910390fd5b6000828461020d91906109d9565b905060008190806001815401808255809150506001900390600052602060002001600090919091909150558091505092915050565b600080600080549050905060008060018860ff160361026c5761026586866104a3565b91506102fe565b60028860ff160361028857610281868661066e565b91506102fd565b60038860ff16036102a45761029d868661057e565b91506102fc565b60048860ff16036102c0576102b986866101bb565b91506102fb565b6040517f08c379a00000000000000000000000000000000000000000000000000000000081526004016102f290610a56565b60405180910390fd5b5b5b5b60018361030b9190610a76565b60008054905014610351576040517f08c379a000000000000000000000000000000000000000000000000000000000815260040161034890610b1c565b60405180910390fd5b60018760ff160361036d5761036682866104a3565b9050610442565b60028760ff16036103cc57848210156103bb576040517f08c379a00000000000000000000000000000000000000000000000000000000081526004016103b290610bae565b60405180910390fd5b6103c5828661066e565b9050610441565b60038760ff16036103e8576103e1828661057e565b9050610440565b60048760ff1603610404576103fd82866101bb565b905061043f565b6040517f08c379a000000000000000000000000000000000000000000000000000000000815260040161043690610a56565b60405180910390fd5b5b5b5b60028361044f9190610a76565b60008054905014610495576040517f08c379a000000000000000000000000000000000000000000000000000000000815260040161048c90610b1c565b60405180910390fd5b809350505050949350505050565b60008083116104e7576040517f08c379a00000000000000000000000000000000000000000000000000000000081526004016104de90610c40565b60405180910390fd5b6000821161052a576040517f08c379a000000000000000000000000000000000000000000000000000000000815260040161052190610c40565b60405180910390fd5b600082846105389190610a76565b90508381101561054b5761054a610c60565b5b60008190806001815401808255809150506001900390600052602060002001600090919091909150558091505092915050565b60008083116105c2576040517f08c379a00000000000000000000000000000000000000000000000000000000081526004016105b990610c40565b60405180910390fd5b60008211610605576040517f08c379a00000000000000000000000000000000000000000000000000000000081526004016105fc90610c40565b60405180910390fd5b600082846106139190610c8f565b9050600084148061062e575082848261062c91906109d9565b145b61063b5761063a610c60565b5b60008190806001815401808255809150506001900390600052602060002001600090919091909150558091505092915050565b6000818310156106b3576040517f08c379a00000000000000000000000000000000000000000000000000000000081526004016106aa90610d43565b60405180910390fd5b600082846106c19190610d63565b9050600083101580156106d45750838111155b806106ea57506000831080156106e957508381115b5b6106f7576106f6610c60565b5b60008190806001815401808255809150506001900390600052602060002001600090919091909150558091505092915050565b6000818154811061073a57600080fd5b906000526020600020016000915090505481565b508054600082559060005260206000209081019061076c919061076f565b50565b5b80821115610788576000816000905550600101610770565b5090565b600080fd5b6000819050919050565b6107a481610791565b81146107af57600080fd5b50565b6000813590506107c18161079b565b92915050565b600080604083850312156107de576107dd61078c565b5b60006107ec858286016107b2565b92505060206107fd858286016107b2565b9150509250929050565b61081081610791565b82525050565b600060208201905061082b6000830184610807565b92915050565b600060ff82169050919050565b61084781610831565b811461085257600080fd5b50565b6000813590506108648161083e565b92915050565b600080600080608085870312156108845761088361078c565b5b600061089287828801610855565b94505060206108a387828801610855565b93505060406108b4878288016107b2565b92505060606108c5878288016107b2565b91505092959194509250565b6000602082840312156108e7576108e661078c565b5b60006108f5848285016107b2565b91505092915050565b600082825260208201905092915050565b7f43616e6e6f7420646976696465206279207a65726f0000000000000000000000600082015250565b60006109456015836108fe565b91506109508261090f565b602082019050919050565b6000602082019050818103600083015261097481610938565b9050919050565b7f4e487b7100000000000000000000000000000000000000000000000000000000600052601260045260246000fd5b7f4e487b7100000000000000000000000000000000000000000000000000000000600052601160045260246000fd5b60006109e482610791565b91506109ef83610791565b9250826109ff576109fe61097b565b5b828204905092915050565b7f496e76616c6964206f7065726174696f6e000000000000000000000000000000600082015250565b6000610a406011836108fe565b9150610a4b82610a0a565b602082019050919050565b60006020820190508181036000830152610a6f81610a33565b9050919050565b6000610a8182610791565b9150610a8c83610791565b9250828201905080821115610aa457610aa36109aa565b5b92915050565b7f5061737420526573756c7420646964206e6f7420696e6372656d656e742c206f60008201527f7065726174696f6e206d617920626520756e7375636365737366756c00000000602082015250565b6000610b06603c836108fe565b9150610b1182610aaa565b604082019050919050565b60006020820190508181036000830152610b3581610af9565b9050919050565b7f5468652076616c7565206f66206c617374526573756c74206d7573742062652060008201527f626967676572207468616e206e756d3200000000000000000000000000000000602082015250565b6000610b986030836108fe565b9150610ba382610b3c565b604082019050919050565b60006020820190508181036000830152610bc781610b8b565b9050919050565b7f4f6e6c79204e6f6e2d5a65726f20616e6420506f736974697665204e756d626560008201527f72732061726520616c6c6f776564000000000000000000000000000000000000602082015250565b6000610c2a602e836108fe565b9150610c3582610bce565b604082019050919050565b60006020820190508181036000830152610c5981610c1d565b9050919050565b7f4e487b7100000000000000000000000000000000000000000000000000000000600052600160045260246000fd5b6000610c9a82610791565b9150610ca583610791565b9250828202610cb381610791565b91508282048414831517610cca57610cc96109aa565b5b5092915050565b7f6e756d31206d7573742062652067726561746572207468616e206f722065717560008201527f616c20746f206e756d3200000000000000000000000000000000000000000000602082015250565b6000610d2d602a836108fe565b9150610d3882610cd1565b604082019050919050565b60006020820190508181036000830152610d5c81610d20565b9050919050565b6000610d6e82610791565b9150610d7983610791565b9250828203905081811115610d9157610d906109aa565b5b9291505056fea2646970667358221220ded16935e12eadfcdb061856043a9862fadc29db1f6e53e332ffce9ab129e16d64736f6c63430008110033",
  "immutableReferences": {},
  "source": "\n// SPDX-License-Identifier: MIT\n// compiler version must be greater than or equal to 0.8.17 and less than 0.9.0\npragma solidity ^0.8.17;\n\ncontract BasicCalculator {\n\n    uint256[] public pastResults;\n\n    function addOnlyPositive(uint256 num1, uint256 num2) public returns(uint256) {\n        require(num1 > 0, \"Only Non-Zero and Positive Numbers are allowed\");\n        require(num2 > 0, \"Only Non-Zero and Positive Numbers are allowed\");\n\n        uint256 result = num1 + num2;\n        assert(result >= num1);\n\n        // Add result to last result\n        pastResults.push(result);\n\n        return result;\n    }\n\n    function subtractOnlyPositive(uint256 num1, uint256 num2) public returns(uint256) {\n        require(num1 >= num2, \"num1 must be greater than or equal to num2\");\n        \n        uint256 result = num1 - num2;\n        assert((num2 >= 0 && result <= num1) || (num2 < 0 && result > num1));\n\n        // Add result to last result\n        pastResults.push(result);\n\n        return result;\n    }\n\n    function multiplyOnlyPositive(uint256 num1, uint256 num2) public returns(uint256) {\n        require(num1 > 0, \"Only Non-Zero and Positive Numbers are allowed\");\n        require(num2 > 0, \"Only Non-Zero and Positive Numbers are allowed\");\n\n        uint256 result = num1 * num2;\n        assert(num1 == 0 || result / num1 == num2);\n\n        // Add result to last result\n        pastResults.push(result);\n\n        return result;\n    }\n\n    function divideNum(uint256 num1, uint256 num2) public returns(uint256) {\n        // Ensure num2 is not zero\n        require(num2 != 0, \"Cannot divide by zero\");\n\n        uint256 result = num1 / num2;\n\n        // Add result to last result\n        pastResults.push(result);\n\n        return result;\n    }\n\n    function execTwoOp(uint8 op1, uint8 op2, uint256 num1, uint256 num2) public returns(uint256) {\n\n        uint256 initialPastResultLength = pastResults.length;\n        uint256 lastResult = 0;\n        uint256 finalResult = 0;\n\n        // Perform first operation\n        if (op1 == 1) {\n            lastResult = addOnlyPositive(num1, num2);\n        } else if (op1 == 2) {\n            lastResult = subtractOnlyPositive(num1, num2);\n        } else if (op1 == 3) {\n            lastResult = multiplyOnlyPositive(num1, num2);\n        } else if (op1 == 4) {\n            lastResult = divideNum(num1, num2);\n        } else {\n            revert(\"Invalid operation\");\n        }\n\n        // If past results did not increase, revert, since operation may not be successful\n        if ( pastResults.length != initialPastResultLength + 1 ) {\n            revert(\"Past Result did not increment, operation may be unsuccessful\");\n        }\n\n        // Perform second operation using lastResult\n        if (op2 == 1) {\n            finalResult = addOnlyPositive(lastResult, num2);\n        } else if (op2 == 2) {\n\n            if (lastResult < num2) {\n                revert(\"The value of lastResult must be bigger than num2\");\n            }\n\n            finalResult = subtractOnlyPositive(lastResult, num2);\n        } else if (op2 == 3) {\n            finalResult = multiplyOnlyPositive(lastResult, num2);\n        } else if (op2 == 4) {\n            finalResult = divideNum(lastResult, num2);\n        } else {\n            revert(\"Invalid operation\");\n        }\n\n        // If past results did not increase, revert, since operation may not be successful\n        if ( pastResults.length != initialPastResultLength + 2 ) {\n            revert(\"Past Result did not increment, operation may be unsuccessful\");\n        }\n\n        return finalResult;\n\n    }\n\n    function clearPastResults() public  {\n        delete pastResults;\n    }\n}\n\n",
  "sourcePath": "/workspace/solidity_starter/contracts/BasicCalculator.sol",
  "compiler": {
    "name": "solc",
    "version": "0.8.17+commit.8df45f5f.Emscripten.clang"
  },
  "schemaVersion": "3.4.16",
  "updatedAt": "2024-06-22T07:42:18.514Z",
  "networkType": "ethereum",
  "devdoc": {
    "kind": "dev",
    "methods": {},
    "version": 1
  },
  "userdoc": {
    "kind": "user",
    "methods": {},
    "version": 1
  }
}