{
  "contractName": "HelloWorld",
  "abi": [
    {
      "inputs": [
        {
          "internalType": "address",
          "name": "_address",
          "type": "address"
        },
        {
          "internalType": "uint256",
          "name": "_value",
          "type": "uint256"
        }
      ],
      "name": "mint",
      "outputs": [],
      "stateMutability": "nonpayable",
      "type": "function"
    },
    {
      "inputs": [
        {
          "internalType": "address",
          "name": "_address",
          "type": "address"
        },
        {
          "internalType": "uint256",
          "name": "_value",
          "type": "uint256"
        }
      ],
      "name": "burn",
      "outputs": [],
      "stateMutability": "nonpayable",
      "type": "function"
    },
    {
      "inputs": [
        {
          "internalType": "address",
          "name": "_address",
          "type": "address"
        }
      ],
      "name": "checkBalance",
      "outputs": [
        {
          "internalType": "uint256",
          "name": "",
          "type": "uint256"
        }
      ],
      "stateMutability": "view",
      "type": "function",
      "constant": true
    }
  ],
  "bytecode": "0x608060405234801561001057600080fd5b5061061c806100206000396000f3fe608060405234801561001057600080fd5b50600436106100415760003560e01c806340c10f19146100465780635f515226146100625780639dc29fac14610092575b600080fd5b610060600480360381019061005b9190610354565b6100ae565b005b61007c60048036038101906100779190610394565b61014a565b60405161008991906103d0565b60405180910390f35b6100ac60048036038101906100a79190610354565b6101e1565b005b600081116100f1576040517f08c379a00000000000000000000000000000000000000000000000000000000081526004016100e89061046e565b60405180910390fd5b806000808473ffffffffffffffffffffffffffffffffffffffff1673ffffffffffffffffffffffffffffffffffffffff168152602001908152602001600020600082825461013f91906104bd565b925050819055505050565b6000806000808473ffffffffffffffffffffffffffffffffffffffff1673ffffffffffffffffffffffffffffffffffffffff16815260200190815260200160002054101561019b5761019a6104f1565b5b6000808373ffffffffffffffffffffffffffffffffffffffff1673ffffffffffffffffffffffffffffffffffffffff168152602001908152602001600020549050919050565b806000808473ffffffffffffffffffffffffffffffffffffffff1673ffffffffffffffffffffffffffffffffffffffff168152602001908152602001600020541015610262576040517f08c379a000000000000000000000000000000000000000000000000000000000815260040161025990610592565b60405180910390fd5b806000808473ffffffffffffffffffffffffffffffffffffffff1673ffffffffffffffffffffffffffffffffffffffff16815260200190815260200160002060008282546102b091906105b2565b925050819055505050565b600080fd5b600073ffffffffffffffffffffffffffffffffffffffff82169050919050565b60006102eb826102c0565b9050919050565b6102fb816102e0565b811461030657600080fd5b50565b600081359050610318816102f2565b92915050565b6000819050919050565b6103318161031e565b811461033c57600080fd5b50565b60008135905061034e81610328565b92915050565b6000806040838503121561036b5761036a6102bb565b5b600061037985828601610309565b925050602061038a8582860161033f565b9150509250929050565b6000602082840312156103aa576103a96102bb565b5b60006103b884828501610309565b91505092915050565b6103ca8161031e565b82525050565b60006020820190506103e560008301846103c1565b92915050565b600082825260208201905092915050565b7f4d696e7420616d6f756e74206d7573742062652067726561746572207468616e60008201527f207a65726f210000000000000000000000000000000000000000000000000000602082015250565b60006104586026836103eb565b9150610463826103fc565b604082019050919050565b600060208201905081810360008301526104878161044b565b9050919050565b7f4e487b7100000000000000000000000000000000000000000000000000000000600052601160045260246000fd5b60006104c88261031e565b91506104d38361031e565b92508282019050808211156104eb576104ea61048e565b5b92915050565b7f4e487b7100000000000000000000000000000000000000000000000000000000600052600160045260246000fd5b7f4275726e20616d6f756e74206d757374206265206c657373207468616e206f7260008201527f20657175616c20746865206578697374696e672062616c616e63652100000000602082015250565b600061057c603c836103eb565b915061058782610520565b604082019050919050565b600060208201905081810360008301526105ab8161056f565b9050919050565b60006105bd8261031e565b91506105c88361031e565b92508282039050818111156105e0576105df61048e565b5b9291505056fea2646970667358221220e6d67ffb6db8a01afd5037630a1a7cf49361797871f1132ea7705128a00e10d864736f6c63430008110033",
  "immutableReferences": {},
  "source": "\n// SPDX-License-Identifier: MIT\n// compiler version must be greater than or equal to 0.8.17 and less than 0.9.0\npragma solidity ^0.8.10;\n\ncontract HelloWorld {\n    mapping(address => uint) private balances;\n\n    function mint(address _address, uint _value) public {\n        require(_value > 0, \"Mint amount must be greater than zero!\");\n        balances[_address] += _value;\n    }\n\n    function burn(address _address, uint _value) public {\n        if (balances[_address] < _value) {\n            revert(\"Burn amount must be less than or equal the existing balance!\");\n        }\n\n        balances[_address] -= _value;\n    }\n\n    function checkBalance(address _address) public view returns (uint) {\n        assert(balances[_address] >= 0);\n        return balances[_address];\n    }\n}\n",
  "sourcePath": "/workspace/solidity_starter/contracts/HelloWorld.sol",
  "compiler": {
    "name": "solc",
    "version": "0.8.17+commit.8df45f5f.Emscripten.clang"
  },
  "schemaVersion": "3.4.16",
  "updatedAt": "2024-06-19T15:16:21.949Z",
  "networkType": "ethereum",
  "devdoc": {
    "kind": "dev",
    "methods": {},
    "version": 1
  },
  "userdoc": {
    "kind": "user",
    "methods": {},
    "version": 1
  }
}